S0160000746573744350726F6A6563744C43442E73333731
S113000000000220C1030000ED030000ED03000026
S1130010ED030000ED030000ED030000ED0300001C
S1130020ED030000ED030000ED030000ED0300000C
S1130030ED030000EC030000ED030000ED030000FD
S1130040ED030000ED030000ED030000ED030000EC
S1130050ED030000ED030000ED030000ED030000DC
S1130060ED030000ED030000ED030000ED030000CC
S1130070ED030000ED030000ED030000ED030000BC
S1130080ED030000ED030000ED030000ED030000AC
S1130090ED030000ED030000ED030000ED0300009C
S11300A0ED030000ED030000ED030000ED0300008C
S11300B0ED030000ED030000ED030000ED0300007C
S11300C0ED030000ED030000ED030000ED0300006C
S11300D0ED030000ED030000ED03000010B5054C36
S11300E0237833B9044B13B10448AFF300800123E0
S11300F0237010BD3C0100200000000010360000F9
S113010008B5034B1BB103490348AFF3008008BD96
S1130110000000004001002010360000154B002BA9
S113012008BF134B9D46A3F5803A00218B460F462A
S11301301348144A121A03F066F90F4B002B00D02F
S113014098470E4B002B00D0984700200021040054
S11301500D000D48002802D00C48AFF3008003F0D6
S113016023F92000290002F037FB03F009F900BF4E
S11301700000080000000220000000000000000051
S11301803C0100208001002000000000000000006D
S113019080B485B000AF786039607B6803F1047384
S11301A0DA003B6813449B00FB60FB681B6818463D
S11301B01437BD4680BC704780B582B000AF03469B
S11301C03960FB71FB79002B0DD0FB79012B0AD030
S11301D0FB79022B07D0FB79032B04D0FB79042B8A
S11301E001D0FB79052BFA791346DB0013449B00FD
S11301F01C3303F1804303F5C04339681846FFF705
S1130200C7FF034618460837BD4680BD80B582B097
S113021000AF0121104800F057FF01210F4800F002
S113022053FF00237B600FE00D4A7B6812F8330014
S11302300B4A7B68DB00134459680123012201F057
S113024075FB7B6801337B607B68012BECDD00BFB1
S11302500837BD4680BD00BF4081040000D20400C1
S1130260E835000080B584B000AF78604FF0FF330C
S1130270FB607B68002B10DB7B68012B0DDC094ADB
S11302807B6812F83300074A7B68DB0013445B6821
S11302901946FFF791FF0346FB60FB6818461037C9
S11302A0BD4680BDE835000080B582B000AF3A4B52
S11302B05B6C394A43F400535364384BD3F8203110
S11302C0364A43F00403C2F82031344BD3F82031CA
S11302D0324A23F44073C2F82031304BD3F8B8309B
S11302E02E4A23F47063C2F8B8302C4BD3F8B830DC
S11302F02A4A43F48063C2F8B830274B10221A62AA
S113030000BF254BDB6A03F02003002BF9D0244BFC
S11303101B68234A43F001031360214BDB68204A26
S113032043F08073D3601F4B1F4A1A601F4800F0CC
S11303302FFF034603F5D52303F2FC437B607B6860
S1130340DB081B4AA2FB03239B0A3B60194A3B6858
S1130350013B1361174B0222C3F8F020154B4FF4F5
S11303608072C3F804234FF06043134AC3F8B02FDC
S11303704FF06043114AC3F8802E4FF06043D3F826
S1130380003E4FF0604243F00103C2F8003E0123F7
S113039018460837BD4680BD00800C400060004010
S11303A0F0ED00E0001000E0FF13014006000E0035
S11303B017916502000004E055CEACC509000100A8
S11303C0064880470649074A074B9A42BEBF51F880
S11303D0040B42F8040BF8E7FFF7A0FE65050000E4
S11303E01C360000000000203C010020FEE700BF96
S11303F080B400AF034BDB6C1B0EDBB21846BD466A
S113040080BC7047B081E00F80B582B000AF00F0CF
S11304101FF87860074B5B6803F00F037A6822FAD1
S113042003F37B60044A7B6813607B6818460837D3
S1130430BD4680BD00800C400800002080B400AFA1
S1130440024B1846BD4680BC704700BF006CDC02FE
S113045080B582B000AF334BDB6A03F47053B3F55D
S1130460805F0AD0B3F5005F03D0B3F5006F08D006
S11304700BE02D4B1B687B6047E04FF400437B602F
S113048043E02A4B1B687B603FE0264BDB6803F4A8
S1130490E063B3F5007F1BD0B3F5007F05D8002BD4
S11304A024D0B3F5807F16D02BE0B3F5806F09D04C
S11304B0B3F5A06F03D0B3F5407F06D021E01C4B09
S11304C07B6021E01B4B7B601EE01B4B7B601BE0D1
S11304D01A4B7B6018E0FFF78BFF0346122B02D9FF
S11304E0174B7B6010E0174B7B600DE0FFF780FF3C
S11304F00346122B02D9144B7B6005E0134B7B603F
S113050002E000237B6000BF00BF064B1B689B0B0F
S113051003F0070301337A68B2FBF3F31846083794
S1130520BD4680BD00800C40040000200000002077
S1130530003FAB01406F4001809FD500C0D8A700A9
S113054040B56400C0CF6A00804F120040420F00E3
S113055080B400AF024B1B681846BD4680BC704790
S11305600000002080B400AF034B044A9A6000BF2F
S1130570BD4680BC704700BF00ED00E000000000F5
S113058080B400AF4FF400431846BD4680BC7047AA
S113059080B400AF4FF47A731846BD4680BC7047F0
S11305A080B400AF024B1B681846BD4680BC704740
S11305B00400002080B483B000AF786000BF054B16
S11305C05A6E7B681340002BF9D100BF0C37BD462F
S11305D080BC704700A0084080B483B000AF78604E
S11305E0054B9A6A7B68DB43034913408B6200BF67
S11305F00C37BD4680BC704700A0084080B500AFF2
S113060000222849002001F0B1FB002225490120E5
S113061001F0ACFB00222349022001F0A7FB0022D9
S11306202049032001F0A2FB00221E49042001F00E
S11306309DFB00221B49052001F098FB002219496B
S1130640062001F093FB00221649072001F08EFBDF
S11306500022FF21002001F047FC0022FF2101209D
S113066001F042FC0022FF21022001F03DFC0022A7
S1130670FF21032001F038FC0022FF21042001F0B7
S113068033FC0022FF21052001F02EFC0022FF2173
S1130690062001F029FC0022FF21072001F024FCA0
S11306A000BF80BD00F00FF080B582B000AF0346FC
S11306B0FB710121244800F007FD0321234800F0C9
S11306C015FF4021224800F0CDFB012001F05AF82B
S11306D00121204800F0F8FC4FF0FF30FFF77CFFC9
S11306E01D4801F0E1F90121082001F03BFA012144
S11306F0102001F037FA0121802001F033FA0121A2
S11307004FF4807001F02EFA01214FF4007001F0D3
S113071029FAFB79002B0DD04FF4402001F0A2FC04
S11307204FF4803001F0FCF90C4BDB6F0B4A43F0C3
S11307300803D367FFF762FF4FF0FF30FFF73AFF7C
S113074000BF0837BD4680BDD0433E0002001E00F6
S113075080002A0000362C00F835000000800C4090
S113076080B487B000AFF860B9607A60FB6803F1C9
S11307700473DA00BB6813449B007B617B697A686D
S11307801A6000BF1C37BD4680BC704780B485B07A
S113079000AF786039607B6803F10473DA003B686A
S11307A013449B00FB60FB681B6818461437BD4666
S11307B080BC704780B483B000AF786001227B684E
S11307C002FA03F318460C37BD4680BC704780B468
S11307D085B000AF78607B68002B03D07B68B3F5ED
S11307E0004F00BF7B68B3FA83F3DBB2C3F11F038E
S11307F0FB60FB6818461437BD4680BC7047000098
S113080080B400AF034BDB6C1B0EDBB21846BD4655
S113081080BC7047B081E00F80B400AF034BDB6C49
S11308201B0CDBB21846BD4680BC7047B081E00F9C
S113083080B582B000AFFFF7EFFF03464A2B04D028
S1130840792B02D0482B23D024E0154B1B699BB293
S11308501B029BB203F47C53FB80114B9B691B0965
S11308601B0103F0F0039AB2FB881343FB800C4B8B
S1130870DB691B0903F00F039AB2FB881343FB8067
S1130880FB88B3F5017F01D3064B04E0064B02E07D
S1130890054B00E0002318460837BD4680BD00BF65
S11308A0D0FF0FE000366E010048E80180B584B047
S11308B000AF78600123FB60FFF7BAFF02467B6854
S11308C0934204D80023FB600023BB600BE0FFF7D6
S11308D0AFFF03465B007A689A4202D80123BB60EB
S11308E001E00223BB60FA681E210848FFF738FFC5
S11308F0064B5B6823F48072BB681B0203491343F5
S11309004B6000BF1037BD4680BD00BF00800C4067
S113091080B582B000AF1E210448FFF737FF78602E
S11309207B6818460837BD4680BD00BF00800C4078
S113093080B582B000AF214B5B6903F4E063B3F58B
S1130940007F1CD0B3F5007F05D8002B25D0B3F56C
S1130950807F1FD02AE0B3F5C06F24D0B3F5E06FD9
S11309601ED0B3F5407F21D1FFF74AFF0346122B77
S113097002D9134B7B601CE0124B7B6019E0FFF73C
S11309803FFF0346122B02D90F4B7B6011E00F4B44
S11309907B600EE00E4B7B600BE00E4B7B6008E04F
S11309A00D4B7B6005E00D4B7B6002E000237B6018
S11309B000BF7B6818460837BD4680BD00800C40E8
S11309C0804F120040420F0040B56400C0CF6A005F
S11309D0C0D8A700809FD500406F4001003FAB0105
S11309E080B582B000AF0D4800F0D2FC0346FB7026
S11309F0FB78072B05D0092B07D1FFF729FD786079
S1130A0006E0FFF795FF786002E000237B6000BFFB
S1130A107B6818460837BD4680BD00BF06000E003F
S1130A2080B485B000AF78603960204B5B6803F018
S1130A300703FB60FB68012B01D9042B02D10023BF
S1130A40FB7202E00123FB7200BF7B68184A9342E9
S1130A5007D9FB7A002B01D0052300E00423FB60B7
S1130A6016E07B68124A93420BD87B68114A934282
S1130A7007D9FB7A002B01D0032300E00123FB609C
S1130A8006E0FB7A002B01D0022300E00023FB6088
S1130A90064B5B6823F007020449FB6813434B6071
S1130AA000BF1437BD4680BC704700BF00000C4037
S1130AB00048E8010024F40080B582B000AF0E4B7A
S1130AC0DB6B002B14BF01230023FB710A4B41F69F
S1130AD07132DA63FFF7B2FC034600211846FFF7D0
S1130AE09FFFFB79002B02D0034B0022DA6300BF87
S1130AF00837BD4680BD00BF00000C4080B584B0FF
S1130B0000AF786039600C4BDB6B002B14BF012302
S1130B100023FB73084B41F67132DA633968786855
S1130B20FFF77EFFFB7B002B02D0034B0022DA632E
S1130B3000BF1037BD4680BD00000C4090B585B0A5
S1130B4000AF78600023BB607B68344A934203D0D3
S1130B50334A934200D000E000BF786800F018FCEC
S1130B600346FB607B682D4A934203D02C4A934290
S1130B7006D00CE02B4B9B6A03F00303FB6006E0FA
S1130B80284B9B6A9B0803F00303FB6000BFFB68D0
S1130B90032B39D801A252F823F000BFD30B000075
S1130BA0AD0B0000B50B0000BD0B0000FFF7E8FC27
S1130BB0B8602DE0FFF7F4FCB86029E0FFF724FCEF
S1130BC00446FFF7A5FE0346013324FA03F3BB6092
S1130BD01EE00023BB607B68104A934203D07B680D
S1130BE00F4A934213D10F4B9A6A7B680B498B428D
S1130BF001D1102300E0142322FA03F3002B06D0C2
S1130C00FFF7C6FCB86002E00023BB6000E000BF51
S1130C10BB6818461437BD4690BD00BF02001E00D5
S1130C200300200000800C4080B483B000AF7860E3
S1130C30094B5B6D03F00103002B07D100BF064B8A
S1130C401A6D7B681340002BF9D100E000BF0C370C
S1130C50BD4680BC704700BF00800C4080B582B0A8
S1130C6000AF104800F094FB0346FB70FB78032BA5
S1130C7007D0092B09D0022B0BD1FFF791FC786028
S1130C800AE0FFF77DFC786006E0FFF7E1FB78609F
S1130C9002E000237B6000BF7B6818460837BD462E
S1130CA080BD00BF0723260080B400AF00BFBD464F
S1130CB080BC704780B400AF00BFBD4680BC7047A5
S1130CC090B585B000AF78607B681B0903F00F0313
S1130CD0BB60BB68013B0C2B00F2AE8001A252F852
S1130CE023F000BF190D0000390E0000390E00007A
S1130CF0290D0000390E0000390E00003D0D0000E2
S1130D006B0D0000F70D0000390E0000390E0000D5
S1130D10390E0000510D00004B4B1B689B0B03F078
S1130D2007030133FB608AE0474B9B6803F00F0322
S1130D30FB60F868FFF73EFDF86080E0424B5B68BB
S1130D4003F00F03FB60F868FFF734FDF86076E00A
S1130D503D4B5B681B0A03F00103FB60FB68013336
S1130D601846FFF727FDF86069E07B68374A93422D
S1130D7018D0364A934203D8354A934207D036E016
S1130D80344A934219D0344A934226D02FE02E4B52
S1130D909B6E1B0903F00F03FB60F868FFF70AFD65
S1130DA0F86027E0284B9B6E1B0A03F00F03FB60DF
S1130DB0F868FFF7FFFCF8601CE0234B9B6E1B0BED
S1130DC003F003041020FFF702FD03462344FB60F5
S1130DD0F868FFF7EFFCF8600CE01B4B9B6E03F028
S1130DE00303FB60F868FFF7E5FCF86002E0012309
S1130DF0FB6000BF23E07B68184A934203D0184A83
S1130E0093420AD014E0104B1B6F03F00303FB6002
S1130E10F868FFF7CFFCF8600DE00B4B1B6F1B0964
S1130E2003F00303FB60F868FFF7C4FCF86002E01A
S1130E300123FB6000BF02E00123FB6000BFFB68ED
S1130E4018461437BD4690BD00800C40802616001D
S1130E508016120080002A0080062E0090071A00D7
S1130E6090171C0090B585B000AF786039607B683E
S1130E701B0903F00F03FB60FB68013B0C2B00F222
S1130E800F8101A252F823F0BD0E0000A110000052
S1130E90A1100000F10E0000A1100000A11000003C
S1130EA0390F00008B0F00004D100000A11000004E
S1130EB0A1100000A1100000190F00003B68002BD6
S1130EC002D03B68082B00BFFFF7F6FD774B1B6889
S1130ED023F4E0323B68013B9B03744913430B60EA
S1130EE0FFF792FAB8600021B868FFF707FED8E070
S1130EF03B68002B03D03B68B3F5007F00BF386824
S1130F00FFF765FC3860694B9B6823F00F02674963
S1130F103B6813438B60C4E03868FFF758FC034612
S1130F20013B3B60614B5B6823F480723B681B02AE
S1130F305E4913434B60B4E03B68002B03D03B682D
S1130F40B3F5007F00BFFFF7B7FDFFF75DFA024678
S1130F503B68B2FBF3F31846FFF7A8FC3868FFF7C9
S1130F6036FC3860514B5B6823F00F024F493B68F5
S1130F7013434B60FFF748FAB8600021B868FFF7E5
S1130F80BDFDB868FFF792FC8BE07B68484A93424A
S1130F901ED0474A934203D8464A934207D054E0AE
S1130FA0454A934225D0454A93423ED04DE0042021
S1130FB0FFF73AFE3868FFF70AFC38603B4B9B6E3C
S1130FC023F0F0023B681B01384913438B663CE075
S1130FD00420FFF729FE3868FFF7F9FB3860334B2C
S1130FE09B6E23F470623B681B02304913438B668B
S1130FF02BE03B680F2B02D93B68802B00BF0420F9
S1131000FFF712FE3868FFF7E2FB3860274B9B6E50
S113101023F440541020FFF7DAFB02463B689B1A86
S11310201B03224A234393660FE00420FFF7FCFDD1
S11310303868FFF7CCFB38601C4B9B6E23F003022F
S11310401A493B6813438B6600BF2AE07B681C4A3D
S1131050934203D01B4A934210D020E04020FFF774
S1131060E3FD3868FFF7B3FB3860104B1B6F23F0C8
S113107003020E493B6813430B6710E04020FFF75F
S1131080D3FD3868FFF7A3FB3860084B1B6F23F0D0
S113109030023B681B01054913430B6700BF00E0A6
S11310A000BF00BF1437BD4690BD00BF00800C4098
S11310B0802616008016120080002A0080062E006A
S11310C090071A0090171C0080B586B000AF7860B6
S11310D00B46FB7000233B617B681B0A03F00F0384
S11310E0013B092B44D801A252F823F02711000038
S11310F02D11000015110000711100007111000084
S1131100331100003D110000711100007111000045
S113111047110000184B7B61FFF776F90346184628
S1131120FFF7C4FB12E0154B7B610FE0144B7B61AE
S11311300CE0144B7B6101233B6107E0124B7B61A4
S113114010233B6102E0114B7B6100BF7B681B0BEA
S113115003F01F03FB603B69002B02D03869FFF7E3
S113116063FDFB781A46F9687869FFF7F9FA00E03D
S113117000BF1837BD4680BD40800C4008800C403D
S113118044800C4058800C4060800C4078800C40B7
S113119090B585B000AF78607B6803F47813B3F53D
S11311A0D01F00F0B480B3F5D01F1AD8B3F5602F68
S11311B000F0C880B3F5602F08D8B3F5003F45D0E0
S11311C0B3F5802F36D0002B30D0D2E0B3F5901F8A
S11311D045D0B3F5B01F50D0B3F5801F00F0B680F2
S11311E0C7E0B3F5181F00F0B580B3F5181F0BD88E
S11311F0B3F5F01F2ED0B3F5001F00F08380B3F5D4
S1131200E01F00F09180B4E0B3F5301F56D0B3F581
S1131210301F03D8B3F5281F3DD0AAE0B3F5381F1B
S113122063D0B3F5781F00F09980A2E0FFF710F9BE
S1131230F860A1E0FFF70CF9F860524B9B6803F0EB
S11312400F03FA6822FA03F3FB6095E0FFF7DCF87A
S1131250F86091E04C48FFF771FCF8608CE04A4874
S1131260FFF76CFCF860474B9B6E1B0903F00F0300
S1131270FA6822FA03F3FB607EE04348FFF75EFC62
S1131280F860404B9B6E1B0A03F00F03FA6822FAC6
S113129003F3FB6070E03C48FFF750FCF860394B07
S11312A09B6E1B0B03F003041020FFF790FA034618
S11312B02344FA6822FA03F3FB605DE03248FFF747
S11312C03DFCF8602F4B9B6E1B0B03F00303FA6885
S11312D022FA03F3FB602B4BDB6F03F007030133AC
S11312E0FA68B2FBF3F3FB6046E02748FFF726FCFD
S11312F0F860244B9B6E03F00303FA6822FA03F3AD
S1131300FB6039E02148FFF719FCF86034E01F481E
S1131310FFF714FCF8601B4B1B6F03F00303FA6820
S113132022FA03F3FB6027E01848FFF707FCF86094
S1131330144B1B6F1B0903F00303FA6822FA03F32F
S1131340FB6019E0FFF74CFBF86015E0FFF7F0FADB
S1131350F86011E0FFF782FCF8600DE0FFF754F845
S113136004467868FFF7ACFC0346B4FBF3F3FB6078
S113137002E00023FB6000BFFB6818461437BD463B
S113138090BD00BF00800C4002001E00030020003E
S113139080B485B000AF78600123FB737B6803F0F1
S11313A00F03BB60BB68013B062B00F2938001A2D4
S11313B052F823F0D1130000071400004314000076
S11313C0D5140000D51400007F140000A1140000FF
S11313D0454BDB6A03F47053B3F5805F09D0B3F572
S11313E0005F03D0B3F5006F06D008E00223FB735F
S11313F008E00323FB7305E00423FB7302E00523E9
S1131400FB7300BF69E0384B9B6A03F00303022BB4
S113141006D0032B07D0012B08D10323FB730FE065
S11314200223FB730CE00623FB7309E02E4B9B6A3B
S113143003F48033002B02D00A23FB7300E000BFC7
S11314404BE0294B9B6A03F00C03082B06D00C2BB2
S113145007D0042B08D10323FB730FE00223FB7393
S11314600CE00623FB7309E01F4B9B6A03F4801313
S1131470002B02D00A23FB7300E000BF2DE01A4BBF
S11314801B6803F08053002B03D0B3F1805F03D0BB
S113149023E00723FB7302E00923FB7300BF1CE076
S11314A0114BDB6A03F46033B3F5803F08D0B3F526
S11314B0003F08D0B3F5004F08D10923FB7308E0BF
S11314C00223FB7305E00323FB7302E00123FB7398
S11314D000BF02E00023FB7300BFFB7B18461437F8
S11314E0BD4680BC704700BF00800C4080B588B00A
S11314F000AF78600B46FB700323FB610323FB768C
S113150000233B617B6803F00F03FB60FB68013B36
S1131510062B00F2288101A252F823F039150000AD
S11315200F1600000F160000671700006717000071
S1131530D5160000FF160000FB78023B082B00F2D2
S1131540148101A252F823F06D15000077150000F4
S113155081150000C31500006B1700006B17000015
S11315606B1700006B1700006B1700000423FB616E
S11315700023FB7631E00323FB610123FB762CE09F
S11315800223FB610223FB76FFF752F90346013382
S11315901846FFF78BF9FEF7DBFF0246764B9A42BB
S11315A006D9764B1B68754A43F06003136014E058
S11315B0724B1B6823F06003704A43F020031360EE
S11315C00BE00123FB610323FB76FFF731F90346AC
S11315D001331846FFF76AF900BFFB7E012201219F
S11315E0184600F0EDF8FFF767FAFFF75DFB634A72
S11315F0FB695362FEF708FFB860B868FFF756F955
S11316000021B868FFF77AFAFFF754FBB0E0FB78E3
S1131610013B092B00F2AB8001A252F823F000BF7A
S1131620491600004F1600005F1600006F170000F7
S11316306F1700006F1600006F1700006F1700008F
S11316406F1700008B16000000237B6122E001224B
S11316500121002000F0B4F802237B611AE001228A
S11316600121012000F0ACF801237B6112E0FEF7B8
S1131670CBFEB860B868FFF719F90122042140488D
S1131680FFF76EF803237B6104E000237B610123F1
S11316903B6100BFFB68022B0DD1384B9B6A23F4DE
S11316A0803323F003037A691A433B691B043349EB
S11316B013438B625CE0314B9B6A23F4801323F069
S11316C00C037A6992001A433B691B052B491343A7
S11316D08B624DE0FB78072B02D0092B07D047E043
S11316E0264B1B68254A23F08053136006E0234BE6
S11316F01B68224A43F08053136000BF38E0FB7834
S1131700032B14D0092B22D0022B00D030E001226D
S11317100121002000F054F8184B40225A6200BF07
S1131720164BDB6A03F48033002BF9D01AE0012254
S11317300121012000F044F8104B60225A6200BFDE
S11317400E4BDB6A03F40033002BF9D00AE00B4B99
S113175020225A6200BF094BDB6A03F40043002BCA
S1131760F9D000BF04E000BF02E000BF00E000BF0A
S11317702037BD4680BD00BF0048E80100800C4012
S113178040800C4080B483B000AF78600B4B9B6DFD
S113179003F00803002B0CD17B6803F007037B6084
S11317A0064BDB6F23F0070204497B681343CB67C6
S11317B000E000BF0C37BD4680BC704700800C4081
S11317C080B586B000AF0346FB710B46BB71134670
S11317D07B71FB79042B48D801A252F823F000BF97
S11317E02D1800001F18000003180000F517000052
S11317F01118000001233B610223FB6001237B617C
S11318001DE004233B610823FB6003237B6116E096
S113181010233B612023FB6005237B610FE0402301
S11318203B618023FB6007237B6108E04FF48073F6
S11318303B614FF40073FB6009237B6100BFBB79FC
S1131840002B0ED00B4A3B6913627B79002B0DD021
S113185000BF79690848FEF799FF0346002BF8D0CA
S113186004E0044AFB68136200E000BF1837BD4679
S113187080BD00BF00800C402C800C4080B483B03D
S113188000AF03463960FB71FB79002B0DD0FB7967
S1131890012B0AD0FB79022B07D0FB79032B04D050
S11318A0FB79042B01D0FB79052B01223B6802FA5A
S11318B003F30749FA7918461346DB0013449B00E7
S11318C00B441433186000BF0C37BD4680BC70470E
S11318D00060004080B483B000AF03463960FB7100
S11318E0FB79002B0DD0FB79012B0AD0FB79022B5D
S11318F007D0FB79032B04D0FB79042B01D0FB79AF
S1131900052B01223B6802FA03F30749FA791846CA
S11319101346DB0013449B000B441033186000BFD4
S11319200C37BD4680BC70470060004080B584B071
S113193000AFB9607B600346FB731346BB73FB7B4C
S1131940002B0DD0FB7B012B0AD0FB7B022B07D095
S1131950FB7B032B04D0FB7B042B01D0FB7B052BEF
S1131960BB7B002B0DD07B68002B05D0FB7BB968BB
S11319701846FFF7AFFF04E0FB7BB9681846FFF792
S11319807DFFBB68072B20D82D49FA7B1346DB006B
S113199013449B000B4404331A68BB689B000F215B
S11319A001FA03F3DB431340B97BBA68920001FAEE
S11319B002F211462248FA7B19431346DB00134412
S11319C09B0003440433196025E01D49FA7B134648
S11319D0DB0013449B000B4408331A68BB6803F113
S11319E08043083B9B000F2101FA03F3DB4302EA27
S11319F00301BA7BBB6803F18043083B9B0002FAF6
S1131A0003F30F48FA7B19431346DB0013449B008E
S1131A10034408331960BB7B002B0DD17B68002B7A
S1131A2005D0FB7BB9681846FFF754FF04E0FB7B45
S1131A30B9681846FFF722FF00BF1037BD4680BDC6
S1131A400060004080B483B000AF0346FB71FB79B3
S1131A50002B06D0084B1B68074A43F001031360B0
S1131A6005E0054B1B68044A23F00103136000BF23
S1131A700C37BD4680BC704700A0084080B487B0D6
S1131A8000AFF860B9607A60FB6803F10473DA00B0
S1131A90BB6813449B007B617B697A681A6000BF52
S1131AA01C37BD4680BC704780B584B000AF7860F9
S1131AB01A4B5B68FB600020FFF7C4FFFB6823F44C
S1131AC0830323F01F03FB607B685B68FA6813439E
S1131AD0FB607B681B7A1A46FB681343FB607B68D8
S1131AE05B7A1A46FB681343FB607B68DB68FA6821
S1131AF01343FB607B681B8A1A46FB681343FB6035
S1131B00064AFB6853607B681B78002B02D00120D7
S1131B10FFF798FF00BF1037BD4680BD00A0084006
S1131B2080B485B000AF78600D4B5B68FB60FB68E8
S1131B3023F48033FB607B68002B08D0B3F5803F2F
S1131B4000D005E0FB6843F48033FB6000E000BF95
S1131B50034AFB68536000BF1437BD4680BC70471E
S1131B6000A0084080B483B000AF03460A46FB805F
S1131B7013467B717B79002B06D0094B9A68FB884E
S1131B80074913438B6006E0054B9A68FB88DB43E7
S1131B90034913408B6000BF0C37BD4680BC7047BF
S1131BA000A0084080B584B000AFF860B960134667
S1131BB0FB71FB68072B00F2B38001A252F823F0FB
S1131BC0E11B0000091C0000311C0000591C00002E
S1131BD0811C0000A91C0000D11C0000F91C00009D
S1131BE0BB681F2B06DCBB68FA7919464F48FFF720
S1131BF045FF96E0BB68203BBB60BB68FA79194699
S1131C004B48FFF73BFF8CE0BB681F2B06DCBB682F
S1131C10FA7919464748FFF731FF82E0BB68203B59
S1131C20BB60BB68FA7919464348FFF727FF78E0A1
S1131C30BB681F2B06DCBB68FA7919463F48FFF7DF
S1131C401DFF6EE0BB68203BBB60BB68FA79194698
S1131C503B48FFF713FF64E0BB681F2B06DCBB683F
S1131C60FA7919463748FFF709FF5AE0BB68203B69
S1131C70BB60BB68FA7919463348FFF7FFFE50E0B2
S1131C80BB681F2B06DCBB68FA7919462F48FFF79F
S1131C90F5FE46E0BB68203BBB60BB68FA79194699
S1131CA02B48FFF7EBFE3CE0BB681F2B06DCBB6850
S1131CB0FA7919462748FFF7E1FE32E0BB68203B7A
S1131CC0BB60BB68FA7919462348FFF7D7FE28E0C2
S1131CD0BB681F2B06DCBB68FA7919461F48FFF75F
S1131CE0CDFE1EE0BB68203BBB60BB68FA79194699
S1131CF01B48FFF7C3FE14E0BB681F2B06DCBB6860
S1131D00FA7919461748FFF7B9FE0AE0BB68203B89
S1131D10BB60BB68FA7919461348FFF7AFFE00E0D1
S1131D2000BF00BF1037BD4680BD00BF40A00840C3
S1131D3050A0084044A0084054A0084048A00840CF
S1131D4058A008404CA008405CA00840CCA0084023
S1131D50B4A00840D0A00840B8A00840D4A00840CF
S1131D60BCA00840D8A00840C0A0084080B487B0F8
S1131D7000AFF860B9607A60FB68072B00F2AC80B2
S1131D8001A252F823F000BFA91D0000CD1D0000E0
S1131D90F11D0000151E0000391E0000611E000028
S1131DA0891E0000B11E00004E4B1B6C7B61BB689A
S1131DB0DB437A6913407B61BA687B6813407A69B4
S1131DC013437B61474A7B69136486E0454B5B6C34
S1131DD07B61BB68DB437A6913407B61BA687B68CB
S1131DE013407A6913437B613E4A7B69536474E010
S1131DF03C4B9B6C7B61BB68DB437A6913407B6122
S1131E00BA687B6813407A6913437B61354A7B69FE
S1131E10936462E0334BDB6C7B61BB68DB437A69C0
S1131E2013407B61BA687B6813407A6913437B6112
S1131E302C4A7B69D36450E02A4BD3F8CC307B61C5
S1131E40BB68DB437A6913407B61BA687B681340E3
S1131E507A6913437B61234A7B69C2F8CC303CE046
S1131E60204BD3F8D0307B61BB68DB437A691340E5
S1131E707B61BA687B6813407A6913437B61194AB2
S1131E807B69C2F8D03028E0164BD3F8D4307B619C
S1131E90BB68DB437A6913407B61BA687B68134093
S1131EA07A6913437B610F4A7B69C2F8D43014E02A
S1131EB00C4BD3F8D8307B61BB68DB437A691340A1
S1131EC07B61BA687B6813407A6913437B61054A76
S1131ED07B69C2F8D83000E000BF00BF1C37BD46A4
S1131EE080BC704700A0084080B487B000AFF860A1
S1131EF0B9607A60FB68072B00F2AC8001A252F84B
S1131F0023F000BF251F0000491F00006D1F0000C3
S1131F10911F0000B51F0000DD1F00000520000018
S1131F202D2000004E4B1B6D7B61BB68DB437A693F
S1131F3013407B61BA687B6813407A6913437B6101
S1131F40474A7B69136586E0454B5B6D7B61BB68E3
S1131F50DB437A6913407B61BA687B6813407A6912
S1131F6013437B613E4A7B69536574E03C4B9B6D34
S1131F707B61BB68DB437A6913407B61BA687B6829
S1131F8013407A6913437B61354A7B69936562E048
S1131F90334BDB6D7B61BB68DB437A6913407B6148
S1131FA0BA687B6813407A6913437B612C4A7B6966
S1131FB0D36550E02A4BD3F8B4307B61BB68DB4374
S1131FC07A6913407B61BA687B6813407A6913436A
S1131FD07B61234A7B69C2F8B4303CE0204BD3F8E0
S1131FE0B8307B61BB68DB437A6913407B61BA68B4
S1131FF07B6813407A6913437B61194A7B69C2F891
S1132000B83028E0164BD3F8BC307B61BB68DB43A7
S11320107A6913407B61BA687B6813407A69134319
S11320207B610F4A7B69C2F8BC3014E00C4BD3F8D7
S1132030C0307B61BB68DB437A6913407B61BA685B
S11320407B6813407A6913437B61054A7B69C2F854
S1132050C03000E000BF00BF1C37BD4680BC7047E5
S113206000A0084080B483B000AF7860064B5B6882
S113207023F4E01204497B6813434B6000BF0C3720
S1132080BD4680BC704700BF00A0084080B485B046
S113209000AF78601A4B5B69DBB29B00DBB203F0E4
S11320A03C03FB73164B1B699B09DBB203F0030370
S11320B0DAB2FB7B1343FB737B68FA7B9A70104B99
S11320C01B69DBB203F03F03DAB27B685A700C4B36
S11320D09B691B09DBB21B01FB73094BDB691B0901
S11320E0DBB203F00F03DAB2FB7B1343FB737B68B1
S11320F0FA7B1A7000BF1437BD4680BC704700BF1E
S1132100D0FF0FE084B090B5D3B000AF3C1D206089
S113211007F5AE7080E80E000023C7F8443104E0F0
S1132120D7F844310133C7F84431D7F84431DB00E0
S113213007F5AC7213445B68B3F1FF3FF0D1D7F8F5
S11321408C22D7F84431DB0007F5AC710B445A609C
S1132150D7F89022D7F84431DB0007F5AC710B4473
S11321609A60D7F84431242B08D14FF0FF33C7F8D5
S113217084324FF0FF33C7F88832C7E0D7F89402AF
S113218001F04AF901F06CF90246D7F84431C3F181
S1132190240392FBF3F103FB01F3D21AD7F8443181
S11321A013440133C7F830310023C7F83C311FE032
S11321B0D7F83C31DB0007F5AC721344596807F1DA
S11321C00803D7F83C2143F83210D7F83C31DB0040
S11321D007F5AC7213449A6807F10801D7F83C314B
S11321E0DB000B445A60D7F83C310133C7F83C316B
S11321F0D7F83C31242BDBDDD7F844310133C7F861
S113220034310023C7F83C316BE00023C7F8403178
S11322104AE00023C7F838313AE0D7F83831DB0018
S113222007F5AC7213445B68D7F83C219A420AD193
S1132230D7F83831DB0007F5AC7213449B68D7F844
S113224040219A422BD0D7F83821D7F844319A420A
S113225019D107F10803D7F83421D7F83C1143F812
S1132260321007F10802D7F83431DB001344D7F8F1
S113227040215A60D7F83431242B04DCD7F83431A8
S11322800133C7F83431D7F838310133C7F838315E
S1132290D7F844310133D7F838219A42BDDBD7F857
S11322A040310133C7F84031D7F83C31052B0BDC02
S11322B0D7F84031062B07DCD7F84031012B03D087
S11322C0D7F84031022BA4D1D7F83C31062B03DCDC
S11322D0D7F84031062B9CDDD7F83C310133C7F8E1
S11322E03C31D7F83C31062B8FDD07F10803D7F8D2
S11322F0302153F83230C7F8843207F10802D7F896
S11323003031DB0013445B68C7F888323B1D1B681F
S1132310184607F5AE734FF49872194601F068F841
S11323203B1D186807F5A677BD46BDE8904004B08C
S1132330704780B5D0B000AF3B1D18600223C7F8CA
S11323403C310CE007F10803D7F83C214FF0FF3192
S113235043F83210D7F83C310133C7F83C31D7F891
S11323603C31242BEEDD07F1080300221A6007F14B
S1132370080305225A6007F1080300229A6007F156
S113238008030422DA6007F108030022C3F82821B5
S113239007F108030322C3F82C210223C7F83831BC
S11323A015E007F10803D7F83821012143F832106A
S11323B0D7F838319A1E07F10801D7F83831DB0015
S11323C00B445A60D7F838310133C7F83831D7F89D
S11323D03831072BE5DD07F1080302221A6407F1FF
S11323E0080300225A6407F1080302229A6407F1E1
S11323F008030222DA6407F1080302221A6507F1CE
S1132400080303225A6507F1080302229A6507F1BB
S113241008030522DA6507F1080302221A6607F1A8
S1132420080306225A6607F1080303229A6607F195
S113243008030022DA6607F1080303221A6707F18A
S1132440080303225A6707F1080303229A6707F176
S113245008030422DA6707F108030322C3F8802083
S113246007F108030522C3F8842007F108030322B7
S1132470C3F8882007F108030622C3F88C203B1D0B
S11324801A6807F10803104619464FF498731A4660
S113249000F0AEFF3B1D186807F5A077BD4680BD70
S11324A080B400AF034BDB6C1B0EDBB21846BD4699
S11324B080BC7047B081E00F80B582B000AF0E4B96
S11324C001221A64FFF7ECFF0346FB713B1D18461B
S11324D0FFF7DCFDFB790F2B0AD93B79022B07D9D7
S11324E0064B1B6823F05003044A43F010031360A7
S11324F000BF0837BD4680BD00000C40C0800C40C2
S113250080B483B000AF00237B6002E07B680133BA
S11325107B607B68074A9342F8DD074B5A68074B98
S11325201B68D31A054A136000BF0C37BD4680BC34
S1132530704700BF5FE31600001000E07401002044
S113254080B582B000AF78600020FDF78BFE0346B3
S1132550002B02D07B6801337B600120FDF782FEF3
S11325600346002B02D07B68013B7B607B685A42A8
S113257003F0030302F0030258BF5342002B09DAAD
S11325807B685A4203F0030302F0030258BF53422C
S1132590043307E07B685A4203F0030302F00302AA
S11325A058BF534218460837BD4680BD84B080B535
S11325B082B000AF07F1100C8CE80F000023FB7110
S11325C007E0FB79834A002122F81310FB790133D9
S11325D0FB71FB79062BF4D90023BB7182E0BB7934
S11325E0DB0007F1100213445B68062B77D801A2C5
S11325F052F823F0112600002B2600004526000087
S11326005F2600007926000093260000AD26000016
S1132610BB7907F1100252F833206E4911F81230D9
S113262043F0010301F8123059E0BB7907F11002BD
S113263052F83320674911F8123043F0020301F8CD
S113264012304CE0BB7907F1100252F83320614993
S113265011F8123043F0040301F812303FE0BB7963
S113266007F1100252F833205A4911F8123043F09E
S1132670080301F8123032E0BB7907F1100252F876
S11326803320544911F8123043F0100301F812308A
S113269025E0BB7907F1100252F833204D4911F8B7
S11326A0123043F0200301F8123018E0BB7907F12F
S11326B0100252F83320474911F8123043F0400316
S11326C001F81230BB7907F1100252F83330414A55
S11326D05B0013445A7842F004025A7000BFBB797D
S11326E00133BB71BB7907F1100252F83330B3F1F7
S11326F0FF3F7FF474AFD7F83C31062B5FD801A2BB
S113270052F823F021270000352700004927000054
S11327105D2700007127000085270000992700002D
S1132720D7F838212B4911F8123043F0010301F88E
S1132730123044E0D7F83821264911F8123043F01A
S1132740020301F812303AE0D7F83821214911F890
S1132750123043F0040301F8123030E0D7F8382186
S11327601C4911F8123043F0080301F8123026E036
S1132770D7F83821174911F8123043F0100301F843
S113278012301CE0D7F83821124911F8123043F006
S1132790200301F8123012E0D7F838210D4911F85E
S11327A0123043F0400301F81230D7F83831094AA7
S11327B05B0013445A7842F004025A7000BF054883
S11327C000F080FC00BF0837BD46BDE8804004B07F
S11327D0704700BF64010020F0B5ADF56B7D4CAFD0
S11327E0AB4B5B68AB4A1360FFF766FE0020FDF756
S11327F05BFFFDF759FDFDF709FD002387F87732EC
S11328000023C7F86C3297F87732042BFBD801A267
S113281052F823F0292800007528000091290000AF
S11328201B2A0000552A000007F59E7507F59E74C3
S1132830684604F10C034FF49272194600F0D8FD77
S113284094E80E00284600F095FC0023C7F86C328B
S1132850012387F8773207F59E74684604F1100364
S11328604FF49072194600F0C3FD94E80F00FFF78F
S11328709DFE0CE1FFF744FED7F87032C7F86C32C6
S1132880D7F86C02FFF75CFEC7F8700207F59A757B
S113289007F59E74D7F870324A93D7F86C3249938F
S11328A0684604F10C034FF49272194600F0A0FD3F
S11328B094E80E00284600F0EFF807F59E7407F53B
S11328C09A7248AB92E8030083E80300684604F177
S11328D010034FF49072194600F08AFD94E80F003B
S11328E000F028FB0346002B03D0032387F877323C
S11328F0CDE007F59E7407F59A7248AB92E80300A1
S113290083E80300684604F110034FF490721946FB
S113291000F06EFD94E80F0000F03EFB0346002B30
S113292003D0022387F87732B1E007F59E753E465F
S113293007F59E7407F59A7249AB92E8030083E8A1
S11329400300684604F10C034FF49272194600F038
S11329504FFD94E80E00304600F039FB3B46284614
S113296019464FF498731A4600F042FD012387F884
S1132970773207F59E74684604F110034FF49072A1
S1132980194600F035FD94E80F00FFF70FFE7EE0D6
S1132990404B1B68184600F03FFD3E4B1B6807F593
S11329A09E753E4607F59E744B9307F59A7249ABA4
S11329B092E8030083E80300684604F10C034FF433
S11329C09272194600F014FD94E80E003046FFF7A9
S11329D099FB3B46284619464FF498731A4600F073
S11329E007FD012387F8773207F59E73D3F820316A
S11329F0B3F1FF3F02D0042387F8773207F59E74C2
S1132A00684604F110034FF49072194600F0F0FC8C
S1132A1094E80F00FFF7CAFD39E007F59E743B46C2
S1132A201846FFF786FC3B46204619464FF4987338
S1132A301A4600F0DDFC07F59E74684604F11003A5
S1132A404FF49072194600F0D3FC94E80F00FFF79E
S1132A50ADFD1CE007F59E743B46184600F02AFCC9
S1132A603B46204619464FF498731A4600F0C0FCC2
S1132A7007F59E74684604F110034FF490721946EA
S1132A8000F0B6FC94E80F00FFF790FD00BFBAE633
S1132A90001000E07401002084B080B489B000AF5D
S1132AA0786007F12C0080E80E000023FB6110E041
S1132AB0FB69DB0007F1280213445B68FB60FB69D8
S1132AC0DB0007F1280213449B683B61FB69013377
S1132AD0FB61FB69DB0007F1280213445B68002BF0
S1132AE0E6DAD7F86031032B00F2138201A252F820
S1132AF023F000BF2F2D0000052B0000212E000025
S1132B001B2C00003B69062B00F2FC8101A252F849
S1132B1023F000BF592B0000452B00004F2B000071
S1132B20992B00003B2B0000312B0000D92B000017
S1132B30FB687B610423BB616EE0FB687B6105235A
S1132B40BB6169E006237B610223BB6164E0062369
S1132B507B610123BB615FE0FB68062B0DD1D7F8D5
S1132B605C31002B04D106237B610223BB6153E05B
S1132B7006237B610423BB614EE0D7F85C31002B54
S1132B8005D1FB6801337B610423BB6144E0FB682E
S1132B907B610423BB613FE0FB68062B0DD1D7F8B2
S1132BA05C31002B04D106237B610223BB6133E03B
S1132BB006237B610423BB612EE0D7F85C31002B34
S1132BC005D1FB6801337B610423BB6124E0FB680E
S1132BD07B610423BB611FE0FB68062B0DD1D7F892
S1132BE05C31002B04D106237B610123BB6112E01D
S1132BF006237B610523BB610DE0D7F85C31002B14
S1132C0005D1FB6801337B610523BB6103E0FB68ED
S1132C107B610523BB6100BF74E13B69062B00F2B5
S1132C20738101A252F823F06D2C0000592C00008E
S1132C30632C0000AD2C00004F2C0000452C00003C
S1132C40ED2C0000FB687B610423BB616EE0FB6834
S1132C507B610523BB6169E006237B610223BB61C1
S1132C6064E006237B610123BB615FE0FB68062B04
S1132C700DD1D7F85C31002B04D106237B610123ED
S1132C80BB6153E006237B610523BB614EE0D7F8AB
S1132C905C31002B05D1FB6801337B610523BB61EB
S1132CA044E0FB687B610523BB613FE0FB68062BC6
S1132CB00DD1D7F85C31002B04D106237B610123AD
S1132CC0BB6133E006237B610523BB612EE0D7F8AB
S1132CD05C31002B05D1FB6801337B610523BB61AB
S1132CE024E0FB687B610523BB611FE0FB68062BC6
S1132CF00DD1D7F85C31002B04D106237B6102236C
S1132D00BB6112E006237B610423BB610DE0D7F8AD
S1132D105C31002B05D1FB6801337B610423BB616B
S1132D2003E0FB687B610423BB6100BFECE03B690B
S1132D30062B00F2EB8001A252F823F0592D00007B
S1132D40BF2D0000D72D00007B2D0000072E0000B2
S1132D50EF2D00009D2D0000FB685A1C744B83FB73
S1132D60021313449910D317C91A0B46DB005B1ADC
S1132D70D11A79610023BB6151E0FB685A1C6C4B8A
S1132D8083FB021313449910D317C91A0B46DB00B3
S1132D905B1AD11A79610323BB6140E0FB685A1CBA
S1132DA0634B83FB021313449910D317C91A0B46C0
S1132DB0DB005B1AD11A79610623BB612FE0002383
S1132DC07B61D7F85C31012B02D10023BB6126E083
S1132DD00623BB6123E000237B61D7F85C31012B20
S1132DE002D10623BB611AE00323BB6117E0FB6831
S1132DF07B61D7F85C31012B02D10023BB610EE06B
S1132E000623BB610BE0FB687B61D7F85C31012BC7
S1132E1002D10623BB6101E00323BB6100BF75E05F
S1132E203B69062B74D801A252F823F0492E000006
S1132E308B2E0000A32E00005F2E0000DF2E00006A
S1132E40BB2E0000752E0000FB68002B02D0FB682F
S1132E50013B00E006237B610023BB6151E0FB687A
S1132E60002B02D0FB68013B00E006237B610323B7
S1132E70BB6146E0FB68002B02D0FB68013B00E02D
S1132E8006237B610623BB613BE005237B61D7F806
S1132E905C31012B02D10023BB6132E00623BB610C
S1132EA02FE005237B61D7F85C31012B02D1062387
S1132EB0BB6126E00323BB6123E0FB68002B02D047
S1132EC0FB68013B00E006237B61D7F85C31012BF2
S1132ED002D10023BB6114E00623BB6111E0FB684F
S1132EE0002B02D0FB68013B00E006237B61D7F88E
S1132EF05C31012B02D10623BB6101E00323BB61DA
S1132F0000BF05E000BF04E000BF02E000BF00E036
S1132F1000BF7B681A4607F1140393E8030082E8B4
S1132F20030078682437BD4680BC04B0704700BFF6
S1132F309324499284B080B483B000AF07F1100C9D
S1132F408CE80F0000237B6017E0D7F840217B68F2
S1132F5007F1100151F833309A420BD1D7F84421CC
S1132F607B68DB0007F110010B445B689A4201D1D6
S1132F7001230BE07B6801337B607B6807F110025F
S1132F8052F83330B3F1FF3FDFD1002318460C373A
S1132F90BD4680BC04B0704784B090B400AF07F164
S1132FA0080484E80F00D7F83021D7F838319A4262
S1132FB007D1D7F83421D7F83C319A4201D1012303
S1132FC000E000231846BD4690BC04B0704784B0AE
S1132FD080B584B000AF786007F11C0080E80E0073
S1132FE00023FB601CE0FB680133DB0007F11802DF
S1132FF013445A68FB68DB0007F118010B445A605C
S1133000FB680133DB0007F1180213449A68FB687C
S1133010DB0007F118010B449A60FB680133FB6085
S1133020FB680133DB0007F1180213445B68B3F15A
S1133030FF3FD8D1D7F84C21FB68DB0007F118011A
S11330400B445A60D7F85021FB68DB0007F11801E4
S11330500B449A607B68184607F11C034FF498727E
S1133060194600F0C5F978681037BD46BDE88040C0
S113307004B0704780B483B000AF0346FB71FB79A2
S1133080002B03D0054B01221A6602E0034B0022F9
S11330901A6600BF0C37BD4680BC704700A00840CC
S11330A080B483B000AF786000BF054B5A6E7B6874
S11330B01340002BF9D100BF0C37BD4680BC7047CC
S11330C000A0084080B586B000AF78604FF0FF30B4
S11330D0FFF7E6FF0120FFF7CDFF0023BB753CE0BF
S11330E00023FB7533E0BA7DF97D21481346DB00EC
S11330F09B1A9B0003440B440E331B783B61BA7D3F
S1133100F97D1B481346DB009B1A9B0003440B44C8
S11331101B78FB60BB7D5B007A6813441B881A46EE
S1133120FB7D42FA03F303F00103002B06D0FB6896
S1133130396901221846FEF735FD05E0FB68396957
S113314000221846FEF72EFDFB7D0133FB75FB7D47
S11331500D2BC8D9BB7D0133BB75BB7D062BBFD9F5
S11331600020FFF787FF00BF1837BD4680BD00BFB2
S11331700C00002084B080B584B000AF786007F103
S11331801C0080E80E0000F06BF90246474B83FBFD
S11331900213D910D317C91A0B46DB000B449B004A
S11331A0D31ABB600023FB6106233B620123FB604F
S11331B012E0FB68DB0007F1180213444FF0FF3202
S11331C05A60FB68DB0007F1180213444FF0FF322A
S11331D09A60FB680133FB60FB68242BE9DDBB6864
S11331E0042B06D10623C7F844310123C7F848311C
S11331F04CE0BB68232B06D10623C7F844310223D5
S1133200C7F8483142E0B968294B83FB01235A10BF
S1133210CB17D21A13469B001344CA1ABB689B1AD5
S1133220234A82FB03125210DB17D31AC7F8443126
S1133230B9681F4B83FB01235A10CB17D21A1346CC
S11332409B001344CA1A042A20D801A353F822F07D
S1133250653200006D320000753200007D320000DE
S1133260853200000023C7F848310FE00323C7F874
S113327048310BE00423C7F8483107E00523C7F8B9
S1133280483103E00623C7F8483100BF7B6818467D
S113329007F11C034FF49872194600F0A9F87868F6
S11332A01037BD46BDE8804004B07047398EE3381E
S11332B06766666680B5D0B000AF3B1D1860032317
S11332C0C7F83C310CE007F10C03D7F83C214FF070
S11332D0FF3143F83210D7F83C310133C7F83C31A1
S11332E0D7F83C31242BEEDD07F10C0300221A60E1
S11332F007F10C0307225A6007F10C0300229A60BD
S113330007F10C030B22DA6007F10C0301221A61A6
S113331007F10C030D225A6107F10C0301229A6193
S113332007F10C030B22DA6107F10C0302221A6283
S113333007F10C030D225A6207F10C0302229A6270
S113334007F10C030922DA6207F10C030222C3F825
S1133350282107F10C030922C3F82C213B1D1A680C
S113336007F10C03104619464FF498731A4600F0FF
S11333703FF83B1D186807F5A077BD4680BD0000E7
S113338008B5074B044613B10021AFF30080054B89
S11333901868836A03B19847204600F017F900BF04
S11333A0000000000C36000070B500250C4E0D4CDA
S11333B0A41BA410A54209D100F00AF900250A4E65
S11333C00A4CA41BA410A54205D170BD56F82530A3
S11333D098470135EEE756F8253098470135F2E76E
S11333E03401002034010020340100203801002081
S11333F010B5431E0A44914200D110BD11F8014B8F
S113340003F8014FF7E703460244934200D17047A3
S113341003F8011BF9E7000038B50D4B05461C689D
S1133420A36B7BB9182000F04FF80A4A0A4BA0633B
S1133430C0E90023094B012283600B23838100230D
S1133440C0E904230022A36B1D615A6138BD00BF8B
S1133450D00000200E33CDAB34126DE6ECDE050057
S113346038B5134B1C68A36B7BB9182000F02CF8FB
S1133470104A114BA063C0E90023104B0122836062
S11334800B2383810023C0E90423A16B0C480A6940
S11334904B6950430B4C04FB0300A2FB042303447D
S11334A0541C43F10005C1E9044525F0004038BD32
S11334B0D00000200E33CDAB34126DE6ECDE0500F7
S11334C02DF451582D7F954C024B0146186800F09D
S11334D003B800BFD000002070B5CD1C25F0030553
S11334E008350C2D38BF0C25002D064601DBA942FA
S11334F003D90C233360002070BD00F057F8214A33
S11335001468214691B9204C23681BB9304600F059
S11335103DF820602946304600F038F8431C24D199
S11335200C233046336000F042F8E4E70B685B1B81
S113353018D40B2B0FD90B60CC18CD50304600F0AB
S113354036F804F10B00231D20F00700C31AD3D072
S11335505A42E250D0E74B688C4216BF6360136056
S11335600C46EBE70C464968CCE7C41C24F0030482
S1133570A04205D0211A304600F008F80130CFD01F
S11335802560DBE7580100205C01002038B50023EA
S1133590054C05460846236000F00AF8431C02D196
S11335A0236803B12B6038BD7C010020704770474D
S11335B0044A05491368002B08BF0B4618441060E1
S11335C0184670476001002080010020FEE700BF1C
S11335D0F8B500BFF8BC08BC9E467047F8B500BFFC
S11335E0F8BC08BC9E4670470100000009000000BA
S11335F0010000000A000000010000000300400078
S11336000C0000000000000000000000D4000020B6
S107361000000000B2
S10B361408CBFF7F0100000058
S113361C006CDC0200800000809FD50001010507CE
S113362C070304020302040605060D0E0E0E0D0D0F
S113363C0D0D0E0E0E0E0D0D0101050707030402F0
S113364C0302040605060F1010100F0F0F0F1010B5
S113365C10100F0F010105070703040203020406EF
S113366C050611121212111111111212121211114A
S113367C0101050707030402030204060506131CD3
S113368C1C1C131313131C1C1C1C13130001050703
S113369C060203010302040604051D1E1E1E1D1D45
S11336AC1D1D1E1E1E1E1D1D000105070602030105
S11336BC0302040604051F2020201F1F1F1F2020A7
S11336CC20201F1F0101050707030402030204063F
S11336DC05062122222221212121222222222121FA
S11336ECD4000020000000000000000000000000D6
S11336FC00000000000000000000000000000000BA
S113370C00000000000000000000000000000000A9
S113371C0000000000000000000000000000000099
S113372C0000000000000000000000000000000089
S113373C0000000000000000000000000000000079
S10F374C0000000001010000DD0000008E
S90303C138
